:400000000080002011000000090300000903000080B500AF024A034B1B68136000F0A0F9BC760040FA46004010B5054C237833B9044B13B10448AFF300800123237010BD66
:400040009081FF1F000000002C340000084B10B51BB108480849AFF300800848036803B910BD074B002BFBD0BDE81040184700BF000000002C3400009481FF1F0881FF1F71
:400080000000000080B5A4B000AF3B4654221846002102F0B8FD964B3B6000F085FD01F0D1F90023A7F87E30002387F88E30002387F88D30012387F88C30002387F88F3053
:4000C00000F08AFD8B4801F057FA0023C7F8883089E001F015FA034687F87D3097F87D30582B21D0582B0BDC432B15D0432B02DC002B21D021E0452B1AD0532B10D01CE072
:40010000652B15D0652B02DC632B05D015E0732B06D0782B08D010E0012387F88D300CE0012387F88E3008E0002387F88E3004E0012387F88C3000E000BF012000F05CFD64
:400140000346002B4FD000F07FFD0346184600F0B9FD0346BB6797F88D30002B03D197F88E30002B21D001F027F907F1540318466149BA6F02F050FDB86F02F043FB0246A5
:40018000D7F888309B0007F190010B4443F8902CD7F888300133C7F8883007F15403184601F0EAF901F018F91DE097F88C30002B19D001F001F997F88F3007F15402104660
:4001C0004E491A4602F028FD07F15403184601F0D3F997F88F30013387F88F30002387F88C3001F0F9F8D7F88830132B7FF771AF0023C7F884300023C7F880300023C7F822
:4002000088302BE0D7F8883005339B0007F19002134453F8902CD7F888309B0007F190010B4453F8903C1046194602F03FFB0346184602F08BFC03467B677B6FC7F8803023
:400240007B6F7A6F02FB03F3D7F884201344C7F88430D7F888300133C7F88830D7F88830092BCFDDD7F88030254A82FB03129210DB17D31AC7F8803007F15403184621495B
:40028000D7F8802002F0C8FC07F15403184601F073F9D7F884301A4A82FB03129210DB17D31AC7F88430D7F8840001F0C9FE02460B461046194601F027FC02460B46104646
:4002C000194602F0BDF90346C7F8843007F1540318460C49D7F8842002F09EFC07F15403184601F049F918469037BD4680BD00BF000080BF30340000403400005434000097
:40030000676666666C34000080B400AFFEE700BF80B584B000AF78600F4B1A687B6813441A460E4BD31A802B09DC0B4B1B68FB60094B1A687B681344074A136007E002F0E0
:400340002BFC02460C2313604FF0FF33FB60FB6818461037BD4680BD0C81FF1FD881FF1F80B586B000AF224B7B61224B3B61204B7B6135E03B691B68FB603B695B68BB606A
:400380003B699B683B6000237B600CE0FB681A68BB681A60BB680433BB60FB680433FB607B6804337B607A683B689A42EED13B69DB683B6000237B6008E0BB6800221A60E9
:4003C000BB680433BB607B6804337B607A683B689A42F2D13B6910333B617B69013B7B617B69002BC6D102F0DDFBFFF74BFEFEE7010000002835000080B582B000AF174B86
:40040000174A1A60174A174B1B6843F40073136000237B600FE07B68032B04D8124A7B6852F8233000E0114B11497A6841F822307B6801337B607B682F2BECD90D4B1B78E6
:40044000DAB20D4B1A700D4B094A1A6000F09AF90B4B00221A600837BD4680BD0CED00E00004FA0514ED00E000000000090300000080FF1FBC7600400481FF1F08ED00E0A4
:400480000081FF1F80B582B000AF78603960786800213A6802F0B7FB0837BD4680BD00BF80B584B000AFF860B9607A60F868B9687A6802F09DFB1037BD4680BD80B483B053
:4004C00000AF0346FB71FEE780B487B000AF7860396000233B6100237B6127E07B699B007A6813441B68BB60BB68FB73BB6823F0FF03BB6014E03B695B003A6813441B78AA
:400500001A46BB68134419463B695B003A6813445B780B703B6901333B61FB7B013BFB73FB7B002BE7D17B6901337B617B69132BD4D91C37BD465DF8047B704780B582B044
:4005400000AF3F4B00221A803E4B50221A703E4B19221A803D4B18221A703D483D490822FFF79EFF3C4B02221A704FF0402308221A703A4B03221A70394B3A4A1278D2B2BA
:400580001A70394B08221A80384B41F251221A800023FB7019237B6014E0FB785B00DAB2334B1B78DBB203F00103DBB21343DBB203F00303FB704FF4F07001F011FA7B68C8
:4005C000013B7B607B68002B02D0FB78032BE4D17B68002B02D10320FFF770FF254B4FF480721A80234B07221A70234B00221A70224B48221A701F4B00221A70204B0222C5
:400600001A70204B04221A701F4A1F4B1B78DBB243F00303DBB213701C4A1C4B1B78DBB243F00303DBB21370194A194B1B78DBB263F07F03DBB213700837BD4680BD00BF99
:400640008040004082400040844000408640004000410040200400480043004000420040A14600400801004922420040204200402542004004400040064000400840004084
:40068000014000400B400040A2430040A1430040A043004080B483B000AF114B1B78FB71104AFB7903F00703DBB213700E4AFB791B09DBB213700D4B01221A700C4B0122F7
:4006C0001A700C4B80221A700B4B80221A700B4B44221A700C37BD465DF8047B704700BFCF0100496E5800406F5800402D510040005A0040085A0040005B004076580040CC
:4007000080B483B000AF0346FB71FB79012B0ED8FB79094A52F82330FA79074951F822201178FA790548825C0A43D2B21A700C37BD465DF8047B70477C34000084340000FB
:4007400080B483B000AF0346FB71FB79012B10D8FB790A4A52F82330FA79084951F822201178FA790648825CD243D2B20A40D2B21A700C37BD465DF8047B70477C340000D8
:400780008434000080B586B000AF72B6494A494B1B78DBB243F00403DBB213700023FB7513E0FA7D13465B0013445B00424A13443B613B691A683B699B889BB210461946DD
:4007C000FFF760FEFB7D0133FB75FB7D072BE8D90023FB751CE0FA7D13469B0013445B00364A1344FB60FB681B68BB60FB685B687B60FB681A7A5B7A1B0213437B807B8801
:40080000B86879681A46FFF74BFEFB7D0133FB75FB7D002BDFD04FF090402949FFF754FE284B0A221A70284A274B1B78DBB243F00203DBB21370254A244B1B78DBB243F03B
:400840000203DBB21370224A214B1B78DBB243F04003DBB213701F4A1E4B1B78DBB243F01003DBB213701C481C490A22FFF718FE1B481C490822FFF713FE1B4A1A4B1B7846
:40088000DBB243F00803DBB21370184B60221A70FFF754FE154B80221A70154B01221A70FFF7F8FE13480A490E22FFF7F9FD1837BD4680BDE846004088340000B8340000B2
:4008C00050000048835800400350014013500140A0430040C2430040C05100400C0400482251004018040048224300400048004004000840B043004080B582B002AF414B95
:4009000001221A70404B00221A70102000F03CFF102001F01FF81D20072101F0D3F83B4B04221A703A4B00221A703A4B00221A70394A394B1B78DBB243F01803DBB2137002
:40094000364B00221A70364B00221A70354B00221A70354B0A221A70344B00221A70344B00221A70334B12221A70334B13221A70324B00221A70324B14221A7001230093CF
:4009800003204FF400414FF40042082300F0BEFB02230093002049F2DA014FF40042102300F0B4FB03230093002049F2DA014FF40042102300F0AAFB04230093002049F2A1
:4009C000DA014FF40042102300F0A0FB1D4A0D4B1B78DBB2013B1C499B000B449B7813701A4A084B1B78DBB2013B174931F823301380044B1B78DBB2184600F083F9BD461B
:400A000080BD00BF1081FF1FAC81FF1F96580040975800409E580040075B004093580040885B0040895B004080580040815800408358004088580040895800408D58004067
:400A4000014E00400E4E0040B081FF1F0C4E004080B582B000AF00F0E2FF0346FB71444B1B78BB71434A434B1B78DBB243F00103DBB213703F4A3F4B1B78DBB243F010037D
:400A8000DBB213703C4A3C4B1B78DBB243F00103DBB21370384A384B1B78DBB243F01003DBB21370354A354B1B78DBB243F00203DBB21370324A324B1B78DBB243F002037F
:400AC000DBB213702F4A2F4B1B78DBB243F00303DBB21370032000F0BBFF284A274B1B78DBB223F00203DBB21370254A244B1B78DBB223F00203DBB21370234A224B1B78FE
:400B0000DBB243F00603DBB21370204B7A221A701F4A1F4B1B78DBB243F00103DBB213701C4A1C4B1B78DBB243F00103DBB21370194A194B1B78DBB243F00103DBB21370AF
:400B4000164A164B1B78DBB243F00103DBB21370134B4FF000521A60124B4FF000521A60FB79184600F05FFF0837BD4680BD00BF1081FF1FAA430040BA430040F846004087
:400B8000F9460040915800407758004082580040A1430040B1430040A2430040B243004080E200E000E100E080B500AF084B1B78002B09D1074B1B78DBB2002B01D1FFF77B
:400BC0009BFE034B01221A70FFF742FF80BD00BFAE81FF1FAF81FF1F80B400AF054A054B1B78DBB243F00103DBB21370BD465DF8047B7047004E004080B485B000AF03462D
:400C0000FB710E4B1B78DBB2002B03D00C4B1B78FB7305E00B4B1B78DBB203F00103FB73FB7B012B02D0FB79002BEAD0FB7B18461437BD465DF8047B704700BFAD81FF1F34
:400C4000AC81FF1F014E004080B483B000AF174B1B78DBB203F003037B717B79012B03D8134B1B88FB8011E0114B1B78DBB2FB80104B1B78DBB29BB21B029AB2FB881343B4
:400C8000FB807B79032B01D10B4B1B780B4B1B78DBB2002B02D00A4B00221A70FB881BB218460C37BD465DF8047B7047144E0040104E0040114E0040124E0040AD81FF1F1E
:400CC000AC81FF1F80B485B000AF78600B4B1B687A68D31A7B607B684FF47A7202FB03F2074B1B6892FBF3F3FB81FB891BB218461437BD465DF8047B704700BFD081FF1FB8
:400D0000CC81FF1F80B582B000AF0346FB71C24B00221A70FB79012B65D1C04B38221A70BF4B04221A70BF4B06221A70BE4B00221A70BE4B00221A70BD4B0F221A70BD4B54
:400D400000221A70BC4B00221A70BC4B00221A70BB4B01221A70BB4B14221A70BA4B04221A70BA4B18221A70B94B00221A70B94B11221A70B84B12221A70B84B00221A7089
:400D8000B74B01221A70B74B11221A70B64B19221A70B64B97221A70442000F06DFAB44B58221A70B34B00221A70B34B05221A70B24B02221A70B24B00221A70B14B002232
:400DC0001A70002000F010FCAF4B2A221A602420012100F01DFC9520012100F0FFFC1D20AA4900F047FEFB79022B66D18B4B38221A708B4B04221A708A4B06221A708A4B83
:400E000000221A70894B00221A70894B3F221A70884B00221A70884B00221A70874B00221A70874B01221A70864B50221A70864B27221A70854B2C221A70854B00221A7037
:400E4000844B55221A70844B5A221A70834B05221A70834B01221A70824B11221A70824B19221A70814B97221A70442000F004FA7F4B58221A707F4B00221A707E4B052222
:400E80001A707E4B02221A707D4B00221A707D4B00221A70002000F0A7FB7B4B4FF47A421A600820012100F0B3FB2520012100F095FC1D20764900F0DDFDFB79032B66D1E9
:400EC000564B38221A70564B04221A70554B06221A70554B00221A70544B00221A70544B3F221A70534B00221A70534B00221A70524B00221A70524B01221A70514B502274
:400F00001A70514B27221A70504B2C221A70504B00221A704F4B55221A704F4B5A221A704E4B05221A704E4B01221A704D4B11221A704D4B19221A704C4B97221A70442043
:400F400000F09AF94A4B58221A704A4B00221A70494B05221A70494B02221A70484B00221A70484B00221A70002000F03DFB464B4FF47A421A600820012100F049FB2520FA
:400F8000012100F02BFC1D20424900F073FDFB79042B40F0A880214B38221A70204B04221A70204B06221A701F4B00221A701F4B00221A701E4B3F221A701E4B00221A70B8
:400FC0001D4B00221A701D4B00221A701C4B01221A701C4B50221A701B4B27221A701B4B2C221A701A4B00221A701A4B55221A70194B5A221A70194B05221A70184B01225F
:401000001A70184B11221A70174B19221A70174B97221A7044203FE0AD81FF1F004E0040024E0040034E0040044E0040054E0040064E0040084E0040094E00400A4E00403E
:40104000144E0040845800408558004086580040875800408A5800408B5800408C5800408E5800408F580040905800409158004094580040955800409A5800409B58004093
:401080009C5800409D580040CC81FF1FF1120000FD1200000913000000F0EEF8134B58221A70134B00221A70124B05221A70124B02221A70114B00221A70114B00221A70C3
:4010C000002000F091FA0F4B4FF47A421A600820012100F09DFA2520012100F07FFB1D20094900F0C7FC0837BD4680BD94580040955800409A5800409B5800409C5800402D
:401100009D580040CC81FF1F1513000090B587B000AF0446084611461A462346FB710346BB800B467B801346BB7197F82830002B00F08A8097F82830042B00F28580FB79B6
:40114000013B092B4AD801A252F823F075110000DD110000DD11000075110000DD110000DD1100008F110000A9110000DD110000C3110000BB790F2B04D9364B1B78DBB211
:40118000FB752EE0344B1B78DBB2FB7529E0BB790F2B04D9314B1B78DBB2FB7521E0304B1B78DBB2FB751CE0BB790F2B04D92D4B1B78DBB2FB7514E02B4B1B78DBB2FB75ED
:4011C0000FE0BB790F2B04D9284B1B78DBB2FB7507E0274B1B78DBB2FB7502E00023FB7500BFBA8897F917305B0113443B617B883A6902FB03F3FB60FB68DB0BBB82BB797F
:401200000D2B11D8BB8ABA79C2F10E021341BB8297F82830013BBA790132D1B2154A9B0013440A469A7007E097F82830013B114A9B0013440F229A7097F82830013B0D49FF
:40124000BA8A21F8232002E0002000F0F5FB1C37BD4690BD180100491C010049190100491D0100491A0100491E0100491B0100491F010049B081FF1F80B584B000AF03466D
:40128000FB7100F0CCFB0346FB73164A154B1B78DBB243F00303DBB21370134A124B1B78DBB243F00303DBB21370104AFB791370032000F0CDFB0B4A0A4B1B78DBB223F0FF
:4012C0000303DBB21370084A074B1B78DBB223F00303DBB21370FB7B184600F0A4FB1037BD4680BDF8460040F94600409258004080B400AFBD465DF8047B704780B400AF86
:40130000BD465DF8047B704780B400AFBD465DF8047B704780B400AFBD465DF8047B704780B500AF0E4B06221A700E4B08221A700C4A0C4B1B78DBB243F01003DBB213701E
:40134000094B81221A70094A084B1B78DBB243F00803DBB21370022000F058F880BD00BF0058004001580040025800400B5A004080B400AF0D4A0D4B1B78DBB243F0010321
:40138000DBB213700A4A0A4B1B78DBB243F00103DBB21370074A074B1B78DBB263F07F03DBB21370BD465DF8047B7047A9430040B94300407758004080B500AF054B1B7899
:4013C000002B04D1FFF7ACFF024B01221A70FFF7CFFF80BDC081FF1F80B400AF094A094B1B78DBB223F00103DBB21370064A064B1B78DBB223F00103DBB21370BD465DF8E1
:40140000047B7047A9430040B943004080B485B000AF0346FB710A4B1B78DBB223F00303FB73FB7903F00303DAB2FB7B1343FB73034AFB7B13701437BD465DF8047B7047F3
:401440000158004080B500AF054B1B78002B04D100F008F8024B01221A7000F023F880BDC181FF1F80B400AF094B72221A70094B20221A70084B06221A70084B47221A70BA
:40148000074B00221A70BD465DF8047B704700BF896500408B65004029640040396400408864004080B582B000AF00F0B8FA0346FB71104A0F4B1B78DBB243F02003DBB289
:4014C00013700D4A0C4B1B78DBB243F01003DBB213700A4A094B1B78DBB243F01003DBB2137000F061FAFB79184600F09CFA0837BD4680BD996500409B650040986400404B
:4015000080B483B000AF0023FB710C4B1B78BB71BB7903F02003002B09D0094B1B78FB71BB7903F01E03002B01D00023FB71FB7918460C37BD465DF8047B70476B650040C9
:401540004B65004080B483B000AF0346FB7100BF074B1B78DBB203F00403002BF8D1054AFB7913700C37BD465DF8047B704700BF686400404864004080B584B000AF7860D3
:401580000023FB810B4B1B78002B10D009E0FB897A6813441B781846FFF7D4FFFB890133FB81FB897A6813441B78002BEFD11037BD4680BDC181FF1F80B582B000AF0023A9
:4015C000FB7106E0FB791846FFF7BAF8FB790133FB71FB79012BF5D9024BFF221A700837BD4680BD1181FF1F80B582B000AF0346FB71FFF7E1FFFB791846FFF781F8034A47
:40160000FB7913700837BD4680BD00BF1181FF1F80B584B000AF03460A46FB8013467B7100F0CCF80346FB7300F0A2F80346BB81FA88BB899A4200F08780454B1B78DBB291
:4016400003F00103FB72FB7B002B20D1BB89002B02D0FB88002B1AD1BB89002B0BD13D4AFB8813803C4A3C4B1B78DBB223F04003DBB2137068E0384A374B1B78DBB243F080
:401680004003DBB21370334AFB8813805CE0FB7A002B33D0314B00221A70314B01221A70304B00221A70304A2F4B1B78DBB203F07F03DBB21370284B1B78DBB203F00803C3
:4016C000002B02D0FB88002B18D1284ABB891380224B07221A7000BF204B1B78DBB203F00103002BF8D11A4A194B1B78DBB223F00103DBB21370194B00221A70144B1B78A7
:40170000DBB203F00103002B13D0184AFB881380124A7B79002B01D0032300E00123137000BF0E4B1B78DBB203F00103002BF8D10AE0084AFB8813800549054B1B78DAB274
:40174000FB7A1343DBB20B701037BD4680BD00BFA24300408040004082400040014000401040004014400040084000400240004080B400AF034B1B889BB21846BD465DF8A3
:40178000047B70478040004080B483B000AF0346FB71094B084A1278D2B2D1B2FA7922F00702D2B20A43D2B2D2B21A700C37BD465DF8047B704700BF8240004080B400AF8B
:4017C000054B1B78DBB203F00703DBB21846BD465DF8047B704700BF8240004080B584B000AF03460A46FB8013467B7100F0CCF80346FB7300F0A2F80346BB81FA88BB8991
:401800009A4200F08780454B1B78DBB203F00103FB72FB7B002B20D1BB89002B02D0FB88002B1AD1BB89002B0BD13D4AFB8813803C4A3C4B1B78DBB223F04003DBB21370DA
:4018400068E0384A374B1B78DBB243F04003DBB21370334AFB8813805CE0FB7A002B33D0314B00221A70314B01221A70304B00221A70304A2F4B1B78DBB203F07F03DBB276
:401880001370284B1B78DBB203F00803002B02D0FB88002B18D1284ABB891380224B07221A7000BF204B1B78DBB203F00103002BF8D11A4A194B1B78DBB223F00103DBB256
:4018C0001370194B00221A70144B1B78DBB203F00103002B13D0184AFB881380124A7B79002B01D0032300E00123137000BF0E4B1B78DBB203F00103002BF8D10AE0084A01
:40190000FB8813800549054B1B78DAB2FB7A1343DBB20B701037BD4680BD00BFA14300400041004002410040014000401440004010400040084000400240004080B400AF01
:40194000034B1B889BB21846BD465DF8047B70470041004080B483B000AF0346FB71094B084A1278D2B2D1B2FA7922F00702D2B20A43D2B2D2B21A700C37BD465DF8047BAF
:40198000704700BF0241004080B400AF054B1B78DBB203F00703DBB21846BD465DF8047B704700BF0241004080B400AF094A094B1B78DBB243F00203DBB21370064A064B90
:4019C0001B78DBB243F00203DBB21370BD465DF8047B7047A2430040B243004000000000142816D902B4012114381049097811F0C001890904B40E4A515C04BC00BF00BF1F
:401A000000BF8841FDD500BF00BF02BC704700BF00BF70F10400FCD570470B050709EFF3108072B6704780F310887047004800401A1A0000AFF3008080B483B000AF03467E
:401A4000FB7101BE0C37BD465DF8047B704700BF80B582B000AF0346FB80FB88044A127802FB03F31846FFF7BBFF0837BD4680BD1C81FF1F80B584B000AF03463960FB71D5
:401A80000F4B1B68FB60FB791F2B02D90020FFF7D3FFFB7903F01F0310339B00FA6813441B68BB60FB7903F01F0310339B00FA6813443A681A60BB6818461037BD4680BD6B
:401AC00008ED00E080B582B000AF03460A46FB711346BB71BB79072B02D90020FFF7ACFFFB791F2B02D90020FFF7A6FFFB7903F01F0303F1604303F56443BA795201D2B252
:401B00001A700837BD4680BD2DE9F0478AB006460F4600F04FF8DFF898A004469AF900300D4601330FD03046394600F009F950B14FF000084FF000093046394642464B4636
:401B400000F056FD20B9204629460AB0BDE8F08716499AF8004001220023CDE90467CDE9026701910092089364B9CDE90689684600F012F980B1089B9BB9DDE906010AB06E
:401B8000BDE8F0874046494642464B4600F0E8FB022CCDE90601EAD100F0FEFF21230360E9E700F0F9FF089B0360E6E7C43400002481FF1F2DE9F041604E0C46B6460E40F7
:401BC000764505460B4600F098800029024676DD5FEA215E00F08180AEF2FF3EC3F313031EF0010F43F480135ED100273C46D10F01EB43034FEA6E0E520016204FF40011FD
:401C000065189D424FEAD2764FEA420202DC5B1B6C180F44013806EB43034FEA5101EFD1844620264FF000410AE0A34220D0D50F013E4FEA510105EB43034FEA420220D0C4
:401C40009C420CEB0105F0DA002D05EB010C09DBA0461B1B954288BF03F1FF334446521B0844E4E7BCF1000FF2DB04F10108F0E7954217D8002D05EB010C48DB98460023D1
:401C8000ECE7134315D140087B1003F17F5303F50013FA0703EB0E57394648BF40F00040BDE8F0811C46C2E7D10F01EB430352009BE7411C31D000F001031844E3E721F097
:401CC00000460643ECD079BB8E46D30AAEF1150E5205002BF9D0DC0222D400215B00D80201F10101FAD5C1F10100C1F1200422FA04F4234386448A406EE702460B4600F045
:401D000005FA2A46234600F04FF8BDE8F081BCF1000FAADAA0460023A0E701373046B3E7202401200021E2E702460B4600F03AF802460B4600F014FBB2E700BF0000F07FFD
:401D400010B431F0004408D0114BA1F580129A4208D804205DF8044B704718B902205DF8044B704701F1FF41094B01F5E0019942EFD9B4F5801F01D20320EBE7054B9C4217
:401D800001D00020E6E7B0FA80F04009E2E700BFFFFFDF7F0000F07F0020704781F0004102E000BF83F0004330B54FEA41044FEA430594EA050F08BF90EA020F1FBF54EAEB
:401DC000000C55EA020C7FEA645C7FEA655C00F0E2804FEA5454D4EB5555B8BF6D420CDD2C4480EA020281EA030382EA000083EA010180EA020281EA0303362D88BF30BDEC
:401E000011F0004F4FEA01314FF4801C4CEA113102D0404261EB410113F0004F4FEA03334CEA133302D0524263EB430394EA050F00F0A780A4F10104D5F1200E0DDB02FA5C
:401E40000EFC22FA05F2801841F1000103FA0EF2801843FA05F359410EE0A5F120050EF1200E012A03FA0EFC28BF4CF0020C43FA05F3C01851EBE37101F0004507D54FF0EF
:401E8000000EDCF1000C7EEB00006EEB0101B1F5801F1BD3B1F5001F0CD349085FEA30004FEA3C0C04F101044FEA445212F5800F80F09A80BCF1004F08BF5FEA500C50F1C3
:401EC000000041EB045141EA050130BD5FEA4C0C404141EB010111F4801FA4F10104E9D191F0000F04BF01460020B1FA81F308BF2033A3F10B03B3F120020CDA0C3208DD97
:401F000002F1140CC2F10C0201FA0CF021FA02F10CE002F11402D8BFC2F1200C01FA02F120FA0CFCDCBF41EA0C019040E41AA2BF01EB0451294330BD6FEA04041F3C1CDAFF
:401F40000C340EDC04F11404C4F1200220FA04F001FA02F340EA030021FA04F345EA030130BDC4F10C04C4F1200220FA02F001FA04F340EA0300294630BD21FA04F0294655
:401F800030BD94F0000F83F4801306BF81F480110134013D4EE77FEA645C18BF7FEA655C29D094EA050F08BF90EA020F05D054EA000C04BF1946104630BD91EA030F1EBF2F
:401FC0000021002030BD5FEA545C05D14000494128BF41F0004130BD14F580043CBF01F5801130BD01F0004545F0FE4141F470014FF0000030BD7FEA645C1ABF19461046A5
:402000007FEA655C1CBF0B46024650EA013406BF52EA033591EA030F41F4002130BD00BF90F0000F04BF0021704730B54FF4806404F132044FF000054FF0000150E700BFF0
:4020400090F0000F04BF0021704730B54FF4806404F1320410F0004548BF40424FF000013EE700BF42004FEAE2014FEA31014FEA02701FBF12F07F4393F07F4F81F0605184
:40208000704792F0000F14BF93F07F4F704730B54FF4607401F0004521F0004120E700BF50EA010208BF704730B54FF000050AE050EA010208BF704730B511F0004502D528
:4020C000404261EB41014FF4806404F132045FEA915C3FF4DCAE4FF003025FEADC0C18BF03325FEADC0C18BF033202EBDC02C2F1200300FA03FC20FA02F001FA03FE40EA01
:402100000E0021FA02F11444C1E600BF70B54FF0FF0C4CF4E06C1CEA11541DBF1CEA135594EA0C0F95EA0C0F00F0DEF82C4481EA030621EA4C5123EA4C5350EA013518BF9D
:4021400052EA033541F4801143F4801338D0A0FB02CE4FF00005E1FB02E506F00042E0FB03E54FF00006E1FB03569CF0000F18BF4EF0010EA4F1FF04B6F5007F64F54074DE
:4021800004D25FEA4E0E6D4146EB060642EAC62141EA55514FEAC52040EA5E504FEACE2EB4F1FD0C88BFBCF5E06F1ED8BEF1004F08BF5FEA500E50F1000041EB045170BD64
:4021C00006F0004646EA010140EA020081EA0301B4EB5C04C2BFD4EB0C0541EA045170BD41F480114FF0000E013C00F3AB8014F1360FDEBF002001F0004170BDC4F100044C
:40220000203C35DA0C341BDC04F11404C4F1200500FA05F320FA04F001FA05F240EA020001F0004221F0004110EBD37021FA04F642EB06015EEA430E08BF20EAD37070BD11
:40224000C4F10C04C4F1200500FA04F320FA05F001FA04F240EA020001F0004110EBD37041F100015EEA430E08BF20EAD37070BDC4F1200500FA05F24EEA020E20FA04F301
:4022800001FA05F243EA020321FA04F001F0004121FA04F220EA020000EBD3705EEA430E08BF20EAD37070BD94F0000F0FD101F00046400041EB010111F4801F08BF013CD4
:4022C000F7D041EA060195F0000F18BF704703F00046520043EB030313F4801F08BF013DF7D043EA0603704794EA0C0F0CEA135518BF95EA0C0F0CD050EA410618BF52EACD
:402300004306D1D181EA030101F000414FF0000070BD50EA410606BF1046194652EA430619D094EA0C0F02D150EA013613D195EA0C0F05D152EA03361CBF104619460AD12B
:4023400081EA030101F0004141F0FE4141F470014FF0000070BD41F0FE4141F4780170BD70B54FF0FF0C4CF4E06C1CEA11541DBF1CEA135594EA0C0F95EA0C0F00F0A7F87D
:40238000A4EB050481EA030E52EA03354FEA013100F088804FEA03334FF0805545EA131343EA12634FEA022245EA111545EA10654FEA00260EF000419D4208BF964244F111
:4023C000FD0404F5407402D25B084FEA3202B61A65EB03055B084FEA32024FF480104FF4002CB6EB020E75EB030E22BFB61A754640EA0C005B084FEA3202B6EB020E75EBAC
:40240000030E22BFB61A754640EA5C005B084FEA3202B6EB020E75EB030E22BFB61A754640EA9C005B084FEA3202B6EB020E75EB030E22BFB61A754640EADC0055EA060EBE
:4024400018D04FEA051545EA16754FEA06164FEAC30343EA52734FEAC2025FEA1C1CC0D111F4801F0BD141EA00014FF000004FF0004CB6E711F4801F04BF01430020B4F18F
:40248000FD0C88BFBCF5E06F3FF6AFAEB5EB030C04BFB6EB020C5FEA500C50F1000041EB045170BD0EF0004E4EEA113114EB5C04C2BFD4EB0C0541EA045170BD41F480119C
:4024C0004FF0000E013C90E645EA060E8DE60CEA135594EA0C0F08BF95EA0C0F3FF43BAF94EA0C0F0AD150EA01347FF434AF95EA0C0F7FF425AF104619462CE795EA0C0F35
:4025000006D152EA03353FF4FDAE1046194622E750EA410618BF52EA43067FF4C5AE50EA41047FF40DAF52EA43057FF4EBAE12E74FF0FF3C06E000BF4FF0010C02E000BFAE
:402540004FF0010C4DF804CD4FEA410C7FEA6C5C4FEA430C18BF7FEA6C5C1BD001B050EA410C0CBF52EA430C91EA030F02BF90EA020F0020704710F1000F91EA030F58BFD5
:40258000994208BF90422CBFD8176FEAE37040F0010070474FEA410C7FEA6C5C02D150EA013C07D14FEA430C7FEA6C5CD6D152EA033CD3D05DF8040B704700BF84461046E8
:4025C00062468C461946634600E000BF01B5FFF7B7FF002848BF10F1000F01BD4DF808EDFFF7F4FF0CBF012000205DF808FB00BF4DF808EDFFF7EAFF34BF012000205DF873
:4026000008FB00BF4DF808EDFFF7E0FF94BF012000205DF808FB00BF4DF808EDFFF7CEFF94BF012000205DF808FB00BF4DF808EDFFF7C4FF34BF012000205DF808FB00BF38
:402640004FEA410212F5001215D211D56FF47873B3EB625212D94FEAC12343F0004343EA505311F0004F23FA02F018BF404270474FF00000704750EA013005D111F0004023
:4026800008BF6FF0004070474FF00000704700BF80F0004002E000BF81F0004142001FBF5FEA410392EA030F7FEA226C7FEA236C6AD04FEA1262D2EB1363C1BFD218414016
:4026C00048404140B8BF5B42192B88BF704710F0004F40F4000020F07F4018BF404211F0004F41F4000121F07F4118BF494292EA030F3FD0A2F1010241FA03FC10EB0C00A3
:40270000C3F1200301FA03F100F0004302D5494260EB4000B0F5000F13D3B0F1807F06D340084FEA310102F10102FE2A51D2B1F1004F40EBC25008BF20F0010040EA030079
:402740007047490040EB000010F4000FA2F10102EDD1B0FA80FCACF1080CB2EB0C0200FA0CF0AABF00EBC25052421843BCBFD0401843704792F0000F81F4000106BF80F41D
:4027800000000132013BB5E74FEA41037FEA226C18BF7FEA236C21D092EA030F04D092F0000F08BF0846704790EA010F1CBF0020704712F07F4F04D1400028BF40F00040A3
:4027C000704712F100723CBF00F50000704700F0004343F0FE4040F4000070477FEA226216BF08467FEA23630146420206BF5FEA412390EA010F40F4800070474FF0000344
:4028000004E000BF10F0004348BF40425FEA000C08BF704743F0964301464FF000001CE050EA010208BF70474FF000030AE000BF50EA010208BF704711F0004302D54042CA
:4028400061EB41015FEA010C02BF84460146002043F0B64308BFA3F18053A3F50003BCFA8CF2083AA3EBC25310DB01FA02FC634400FA02FCC2F12002BCF1004F20FA02F212
:4028800043EB020008BF20F00100704702F1200201FA02FCC2F1200250EA4C0021FA02F243EB020008BF20EADC7070474FF0FF0C1CEAD0521EBF1CEAD15392EA0C0F93EA50
:4028C0000C0F6FD01A4480EA010C400218BF5FEA41211ED04FF0006343EA501043EA5111A0FB01310CF00040B1F5000F3EBF490041EAD3715B0040EA010062F17F02FD2A45
:402900001DD8B3F1004F40EBC25008BF20F00100704790F0000F0CF0004C08BF49024CEA502040EA51207F3AC2BFD2F1FF0340EAC250704740F400004FF00003013A5DDCDD
:4029400012F1190FDCBF00F000407047C2F10002410021FA02F1C2F1200200FA02FC5FEA310040F1000053EA4C0308BF20EADC70704792F0000F00F0004C02BF400010F4FC
:40298000000F013AF9D040EA0C0093F0000F01F0004C02BF490011F4000F013BF9D041EA0C018FE70CEAD15392EA0C0F18BF93EA0C0F0AD030F0004C18BF31F0004CD8D1DB
:4029C00080EA010000F00040704790F0000F17BF90F0004F084691F0000F91F0004F14D092EA0C0F01D142020FD193EA0C0F03D14B0218BF084608D180EA010000F00040E0
:402A000040F0FE4040F40000704740F0FE4040F4400070474FF0FF0C1CEAD0521EBF1CEAD15392EA0C0F93EA0C0F69D0A2EB030280EA010C49024FEA402037D04FF08053BD
:402A400043EA111143EA10130CF000408B4238BF5B0042F17D024FF4000C8B4224BF5B1A40EA0C00B3EB510F24BFA3EB510340EA5C00B3EB910F24BFA3EB910340EA9C00AE
:402A8000B3EBD10F24BFA3EBD10340EADC001B0118BF5FEA1C1CE0D1FD2A3FF650AF8B4240EBC25008BF20F0010070470CF0004C4CEA50207F32C2BFD2F1FF0340EAC25013
:402AC000704740F400004FF00003013A37E792F0000F00F0004C02BF400010F4000F013AF9D040EA0C0093F0000F01F0004C02BF490011F4000F013BF9D041EA0C0195E78F
:402B00000CEAD15392EA0C0F08D142027FF47DAF93EA0C0F7FF470AF084676E793EA0C0F04D14B023FF44CAF08466EE730F0004C18BF31F0004CCAD130F000427FF45CAF9D
:402B400031F000437FF43CAF5FE700BF4FEA4002B2F1FE4F0FD34FF09E03B3EB12620DD94FEA002343F0004310F0004F23FA02F018BF404270474FF00000704712F1610FC0
:402B800001D1420205D110F0004008BF6FF0004070474FF000007047014B1868704700BF8881FF1F0E4B70B51E460E4C0025E41AA410A54204D056F8253098470135F8E708
:402BC00000F0A0FC084B094C1E46E41AA4100025A54204D056F8253098470135F8E770BD1035000010350000103500001835000010B5431E0A44914204D011F8014B03F860
:402C0000014FF8E710BD03460244934202D003F8011BFAE7704700000EB400B54FF402719CB0ADF814106FF00041049107914FF6FF711DABADF81610084953F8042B0290FF
:402C40000690086802A9019300F064F8029B00221A701CB05DF804EB03B070478881FF1F2DE9F0478E688246B3420C469046994640D38A8912F4906F3AD025680969022379
:402C80006F1A656905EB450595FBF3F57B1C4B449D4238BF1D4653050FD5294600F030FB064698B121693A46FFF7A2FFA38923F4906343F08003A38113E02A4600F076FBDC
:402CC000064670B95046216900F0D6FA0C23CAF80030A3894FF0FF3043F04003A381BDE8F08726613E4426604E466561ED1BA560B14500D24E4632462068414600F0A0FAAB
:402D0000A36800209B1BA36023681E442660BDE8F08700002DE9F0439DB003938B8906461C060D4690460CD50B6953B9402100F0E7FA2860286110B90C233360CCE040230B
:402D40006B610023099320238DF8293030238DF82A3043461C4613F8012B1AB9B4EB08090FD002E0252AF5D1F8E73046294642464B46FFF775FF013000F0A980099B4B4436
:402D800009932378002B00F0A28000234FF0FF3204930793059206938DF853301A9304F101084446DFF8489121784846052200F039FA08F10108049B30B1C9EB00000122F4
:402DC000824013430493ECE7D80644BF20228DF85320190744BF2B228DF8532022782A2A02D0079923460EE0039A0134111D12680391002ABBBF524243F002030792079267
:402E0000B8BF04930AE01C4622780133303A092A03D80A2000FB0121F5E7079123782E2B1AD163782A2B0AD1039B02341A1D1B680392002BB8BF4FF0FF3305930CE0611C16
:402E400000220C4623780131303B092B03D80A2000FB0232F5E70592DFF8988021784046032200F0DFF938B1049AC8EB00004023834013430493013421781A48062204F136
:402E800001088DF8281000F0CDF988B1164B33B9039B073323F007030833039313E003AB0093304604A92A46104BAFF3008007E003AB0093304604A92A460C4B00F092F87A
:402EC000421C074603D0099B3B44099341E7AB895B0601D4099801E04FF0FF301DB0BDE8F08300BFD834000000000000612C0000CE340000D43400002DE9F84391461F463F
:402F00008A680B6906469342B8BF1346C9F8003091F843200C46DDF8208012B10133C9F800302368990642BFD9F800300233C9F80030256815F006051CD094F8433022684A
:402F4000003318BF012392061FD5E118302081F843005A1C94F845102244023382F8431013E03046394604F119020123C047013007D00135E368D9F800209B1A9D42F0DBD7
:402F8000DBE74FF0FF30BDE8F8833046394604F14302C0470130F4D02268D9F80050E36802F00602042A08BF5D1B2269A3680CBF25EAE57500259342C4BF9B1AED184FF0F9
:402FC0000009A9450ADA3046394604F11A020123C0470130D5D009F10109F2E70020BDE8F88300002DE9FF410C461746227E98466E2A06460A9B01F1430100F0B08012D886
:40300000632A23D00AD8002A00F0BD80582A40F0CC8084F84520DFF804E257E0642A1ED0692A1CD0C1E0732A00F0B18009D86F2A2ED0702A40F0B980226842F020022260CF
:403040003FE0752A24D0782A3BD0AEE01A6804F14205111D1960136884F84230A9E020681A6810F0800F02D0101D186008E010F0400F02F10400186002D0B2F9003000E0C9
:403080001368002B3EDA2D225B4284F8432039E020681A6810F0800F02D0101D186007E010F0400F02F10400186001D0138800E01368227EDFF864E16F2A0CBF08220A227C
:4030C0001CE07822DFF858E184F845202268186812F0800F00F104051D6003D1550601D5038800E00368D00744BF42F0200222601BB9226822F0200222601022002084F8CA
:40310000430002E0DFF814E10A226568002DA8BF2068A560A4BF20F00400206003B965B10D46B3FBF2F002FB10331EF8033005F8013D03460028F4D100E00D46082A0BD19D
:403140002368DA0708D5236962689A42DEBF302305F8013C05F1FF35491B21612EE025681A6815F0800F606903D0151D1D60136808E015F0400F02F104051D60136801D022
:40318000188000E01860002323610D4616E01A68111D1960156800212846626800F042F808B1401B6060636804E004F1420584F8422001232361002384F84330CDF800806A
:4031C0003046214603AA3B46FFF796FE013002D14FF0FF301FE0304639462A462369C0470130F5D023689B0705D4E068039B9842B8BF18460FE00025E368039A9B1A9D42B0
:40320000F3DA3046394604F119020123C0470130DED00135F0E704B0BDE8F081DF340000F034000010B5C9B202449042034605D01C7801308C42F8D1184610BD002010BDBA
:40324000814210B501EB020301D3421E0BE09842FBD28118D21AD34204D013F8014D01F8014DF8E710BD994204D011F8014B02F8014FF8E710BD000030B500293CD051F8F8
:40328000042C0B1F1D49002AB8BF9B180A680C4612B95A600B6030BD93420DD219685818904201BF5A5852181A60426823605A6030BD994203D80A4651680029F9D114688A
:4032C00015199D420AD11B682344D0188842136012D10868034413604B680CE002D90C23036030BD1C681819884201BF08684968001918605960536030BD00BFC881FF1F61
:4033000070B5CC1C24F0030408340C2C38BF0C24002C064603DA0C233360002070BD8C42F9D3204A136810461946A1B10A68121B0ED40B2A03D90A608B188C501FE08B4299
:403340000BBF5A684A6802605A6018BF0B4616E00B464968E9E7144D2B681BB9304600F04BF828603046214600F046F8421C0346D1D0C51C25F0030585420AD11C6003F1A7
:403380000B001A1D20F00700821A0AD05142995070BD3046E91A00F02FF80130BBD02B46ECE770BDC881FF1FC481FF1FF8B5074615460E4621B91146BDE8F840FFF7A0BF02
:4033C0001AB9FFF759FF2846F8BD00F025F8A8420ED238462946FFF793FF044650B131462A46FFF705FC38463146FFF745FF01E03046F8BD2046F8BD38B5064C0023054611
:4034000008462360FCF784FF431C02D1236803B12B6038BDD481FF1F51F8040C0028BEBF091851F8043CC0180438704700000000434F4D20506F7274204F70656E00000018
:4034400053616D706C653A20256C75206D560D0A00000000456D756C6174656420446174613A202578200D0A00000000706F776572203A2025640D0A00000000035B0040B2
:403480002443004040000000005100402000305100404000F0510040100000000140001000140140000800400140000A004C01400002005001402000605200400404004827
:4034C0000600000073717274000000004300232D302B2000686C4C0065666745464700303132333435363738394142434445460030313233343536373839616263646566C6
:4035000000000000F8B500BFF8BC08BC9E4670474D000000F9030000F8B500BFF8BC08BC9E46704729000000383500000881FF1F880000004800000000000000D881FF1FC0
:4035400001FF000000366E01C05D0000180000000000E02E010000000000000000000000000000000000000000000000000000000000000000000000CC3400000000000062
:4035800000000000000000000000000000000000000000000000000000000000000000000000000000000000000000000000000000000000000000002881FF1F0000000044
:4035C00000000000000000000000000000000000000000000000000000000000000000000000000000000000000000000000000000000000000000000000000000000000CB
:40360000000000000000000000000000000000000000000000000000000000000000000000000000000000000000000000000000000000000000000000000000000000008A
:40364000000000000000000000000000000000000000000000000000000000000000000000000000000000000000000000000000000000000000000000000000000000004A
:40368000000000000000000000000000000000000000000000000000000000000000000000000000000000000000000000000000000000000000000000000000000000000A
:020000040003F7
:0200000480007A
:40000000025A00400164004002650040620801403E0901400115014001170140431801403B190140521A0140401B01400444014001450140034601400247014005480140C9
:4000400001490140054C01400A4D0140045001400B010C04880F89728B3800380205030A0606082809060B080C210D060E180F08101911061222131818201E011F10201247
:4000800021142220230826012D01323E35013601371E3B803E403F104041410546C047EB483849FF4AFF4BFF4EF04F44500C5401580459045A045B045C115D115F0166C0DC
:4000C0006A406B02800281028308850489048D04900393309B109C039D019F28A101A201A318AD30AF09B103B304B403B738B820B902BB80BE10C002C640C9FFCA07CBFF40
:40010000CC40CD20CEF0CF05D008D804D904DA04DC10DD01DF01E040E1A8E240E32000020240038005040644070109400AC00C800D900E400F801080110115021610180417
:400140001D041F4820202101224123902540268027092A402B402F8230203281378139553C103D013E403F2040044580470148804BC04C014F8050205110561457125C10BE
:400180005E025F487A017B02C0F8C2D9C438CA99CC9DCEBFD094D210D6F0EC20E4800001020E05020B010C010D010E060F061107120C15071A081C0C1D061E031F0121048F
:4001C000220329063307360F39203A803F10580459045C115F01840385088A038B238C038D278E0C8F18900F911C93229401953F980499049C0F9D1C9F21A008A110A402AB
:40020000A80CA918AC0CAE03AF04B00FB11FB738BA0ABB82D602D712D804D904DB04DC11DD10DF010060010804020701080209800A240D110E0210881222150118401904DE
:400240001C021E02218022822610271029402A222C082E02318432123504368238403A083B103C403E043F105A0869547088722E8C028D0490029123931095549B01A01085
:40028000A308A401A610AE10C097C2DFC41FCAADCCDFCE7ED602E480EC080104030A0432050C060C080E090C0C300D10111014301510181419081A031B061C281D101E026C
:4002C0002230240E27012A302E303030320E3310350C360137033F44580459045C115F01820184018B018C018F019A02A902AA02AE01B002B102B201B301B808BE01BF059A
:40030000C056C103C202C401C50CC60EC805C9FFCAFFCBFFCC62CDA0CEF0CF41D00CD418D804D904DA04DB04DC01DD11DF01E640E702E910EA30EB10ED10EE10EF120040E2
:40034000011804400504064008240A020F08110412C213901790194A1E101F01218022242501260829082F083004310432A2330434083608384239143B403E103F804580F9
:4003800047144F5857405D026408670286218C218D018E10904091149310962899049B109D48A282A308A620C0B7C247C4CFCA22CC0FCE3FD070D230D680D830EC20300194
:4003C0007C08CC02DE019C0946209C09D0019C099E20100825208920C440C820B0088A209C019E20AC08E401128075048D048E80B001C408DE04E008E202EC0400020C02CB
:4004000010021C028080000040000000800040808000800000000000000000000000010095001801BF5D180100000000000000000000000000000000000000000000000028
:40044000000000000000000000000000000000000000000000000000000000000000000000000000000000000000000000000000000000000000000000000000000000007C
:40048000000000000000000000000000000000000000000000000000000000000000000000000000000000000000000000000000000000000000000000000000000000003C
:4004C00000000000000000000000000000000000000000000000000000000000000000000000000000000000000000000000000000000000000000000000000000000000FC
:4005000000000000000000000000000000000000000000000000000000000000000000000000000000000000000000000000000000000000000000000000000000000000BB
:0200000490006A
:0400000000004005B7
:0200000490105A
:04000000BC90ACAF55
:0200000490303A
:02000000653366
:0200000490402A
:4000000000000000000000000000000000000000000000000000000000000000000000000000000000000000000000000000000000000000000000000000000000000000C0
:400040000000000000000000000000000000000000000000000000000000000000000000000000000000000000000000000000000000000000000000000000000000000080
:400080000000000000000000000000000000000000000000000000000000000000000000000000000000000000000000000000000000000000000000000000000000000040
:4000C0000000000000000000000000000000000000000000000000000000000000000000000000000000000000000000000000000000000000000000000000000000000000
:0200000490501A
:0C00000000012E16106900012E2B759CCB
:00000001FF