:4000000000800020110000009D0300009D03000080B500AF024B034A12681A6000F0EAF9BC760040FA46004010B5054C237833B9044B13B10448AFF300800123237010BDF6
:400040008881FF1F00000000FC23000008B5064B1BB106480649AFF300800648036813B1054B03B1984708BD00000000FC2300008C81FF1F0881FF1F0000000080B5ADF5B4
:40008000527D00AF00F0DAFD01F01EFA0023A7F83A33002387F84633002387F84533002387F84433002387F8473300F0DFFDB74801F0A4FA0023C7F840338FE001F062FAEE
:4000C000034687F8393397F83933582B21D0582B0BDC432B15D0432B02DC002B21D021E0452B1AD0532B10D01CE0652B15D0652B02DC632B05D015E0732B06D0782B08D059
:4001000010E0012387F845330CE0012387F8463308E0002387F8463304E0012387F8443300E000BF012000F0B1FD0346002B55D000F0D4FD0346184600F00EFE0346C7F848
:40014000343397F84533002B03D197F84633002B26D001F073F907F5487318468C49D7F8342301F04FFD07F54873184601F046FAD7F8341307F5C873D7F8402343F822100D
:40018000D7F840330133C7F8403307F54873184601F034FA002387F8453301F05FF91DE097F84433002B19D001F048F997F8473307F54872104677491A4601F023FD07F575
:4001C0004873184601F01AFA97F84733013387F84733002387F8443301F040F9D7F84033632B7FF76BAF0023C7F840338EE001F0C9F9034687F8393397F83933582B21D0EF
:40020000582B0BDC432B15D0432B02DC002B21D021E0452B1AD0532B10D01CE0652B15D0652B02DC632B05D015E0732B06D0782B08D010E0012387F845330CE0012387F820
:40024000463308E0002387F8463304E0012387F8443300E000BF012000F018FD0346002B54D000F03BFD0346184600F075FD0346C7F8343397F84533002B03D197F84633F9
:40028000002B25D001F0DAF807F5487318464049D7F8342301F0B6FC07F54873184601F0ADF9D7F834133B46D7F8402343F82210D7F840330133C7F8403307F54873184655
:4002C00001F09CF9002387F8453301F0C7F81DE097F84433002B19D001F0B0F897F8473307F5487210462B491A4601F08BFC07F54873184601F082F997F84733013387F860
:400300004733002387F8443301F0A8F8D7F84033632B7FF76CAF0023C7F83C330023C7F840331EE03B46D7F8402353F8223007F5C872D7F8401352F8212002FB03F3C7F8AF
:400340003033D7F83033D7F8302302FB03F3D7F83C231344C7F83C33D7F840330133C7F84033D7F84033632BDCDD07F5487318460949D7F83C2301F045FC07F54873184613
:4003800001F03CF907F55277BD4680BD0024000010240000242400003C24000080B400AFFEE700BF80B584B000AF78600F4B1A687B6813441A460E4BD31A802B09DC0B4BF9
:4003C0001B68FB60094B1A687B681A44074B1A6007E001F0D9FB03460C221A604FF0FF33FB60FB6818461037BD4680BD0C81FF1FD081FF1F80B586B000AF224B7B61224BA1
:400400003B61204B7B6135E03B691B68FB603B695B68BB603B699B683B6000237B600CE0FB681A68BB681A60BB680433BB60FB680433FB607B6804337B607A683B689A4252
:40044000EED13B69DB683B6000237B6008E0BB6800221A60BB680433BB607B6804337B607A683B689A42F2D13B6910333B617B69013B7B617B69002BC6D101F08BFBFFF776
:40048000FDFDFEE701000000F024000080B582B000AF174B174A1A60174B174A126842F400721A6000237B600FE07B68032B04D8124B7A6853F8223000E0114B114A796868
:4004C00042F821307B6801337B607B682F2BECD90D4B1B78DAB20D4B1A700D4B094A1A6000F09AF90B4B00221A600837BD4680BD0CED00E00004FA0514ED00E0000000004E
:400500009D0300000080FF1FBC7600400481FF1F08ED00E00081FF1F80B582B000AF78603960786800213A6801F063FB0837BD4680BD00BF80B584B000AFF860B9607A60DA
:40054000F868B9687A6801F04BFB1037BD4680BD80B483B000AF0346FB71FEE780B487B000AF7860396000233B6100237B6126E07B699B007A6813441B68BB60BB68FB7374
:40058000BB6823F0FF03BB6013E03B695B003A6813441B781A46BB6813443A69520039680A4452781A703B6901333B61FB7B013BFB73FB7B002BE8D17B6901337B617B6992
:4005C000132BD5D91C37BD465DF8047B704700BF80B582B000AF3F4B00221A803E4B50221A703E4B19221A803D4B18221A703D483D490822FFF79EFF3C4B02221A704FF0A8
:40060000402308221A703A4B03221A70394B3A4A1278D2B21A70394B08221A80384B41F251221A800023FB7019237B6014E0FB785B00DAB2334B1B78DBB203F00103DBB2AF
:400640001343DBB203F00303FB704FF4F07001F003FA7B68013B7B607B68002B02D0FB78032BE4D17B68002B02D10320FFF770FF254B4FF480721A80234B07221A70234B3B
:4006800000221A70224B48221A701F4B00221A70204B02221A70204B04221A701F4B1F4A1278D2B242F00302D2B21A701C4B1C4A1278D2B242F00302D2B21A70194B194AD6
:4006C0001278D2B262F07F02D2B21A700837BD4680BD00BF8040004082400040844000408640004000410040F80300480043004000420040A14600400801004922420040DB
:400700002042004025420040044000400640004008400040014000400B400040A2430040A1430040A043004080B483B000AF114B1B78FB71104BFA7902F00702D2B21A701E
:400740000E4BFA791209D2B21A700D4B01221A700C4B01221A700C4B80221A700B4B80221A700B4B44221A700C37BD465DF8047B704700BFCF0100496E5800406F5800407A
:400780002D510040005A0040085A0040005B00407658004080B483B000AF0346FB71FB79012B0ED8FA79094B53F82230F979074A52F821201178FA790548825C0A43D2B29B
:4007C0001A700C37BD465DF8047B70474C2400005424000080B483B000AF0346FB71FB79012B10D8FA790A4B53F82230F979084A52F821201178FA790648825CD243D2B2EE
:400800000A40D2B21A700C37BD465DF8047B70474C2400005424000080B586B000AF72B6494B494A1278D2B242F00402D2B21A700023FB7513E0FA7D13465B0013445B0087
:40084000424A13443B613B691A683B699B889BB210461946FFF760FEFB7D0133FB75FB7D072BE8D90023FB751CE0FA7D13469B0013445B00364A1344FB60FB681B68BB6050
:40088000FB685B687B60FB681A7A5B7A1B0213437B807B88B86879681A46FFF74BFEFB7D0133FB75FB7D002BDFD04FF090402949FFF754FE284B0A221A70284B274A12788C
:4008C000D2B242F00202D2B21A70254B244A1278D2B242F00202D2B21A70224B214A1278D2B242F04002D2B21A701F4B1E4A1278D2B242F01002D2B21A701C481C490A2271
:40090000FFF718FE1B481C490822FFF713FE1B4B1A4A1278D2B242F00802D2B21A70184B60221A70FFF754FE154B80221A70154B01221A70FFF7F8FE13480A490E22FFF780
:40094000F9FD1837BD4680BDE8460040582400008824000050000048835800400350014013500140A0430040C2430040C0510040E403004822510040F003004822430040F6
:400980000048004004000840B043004080B582B002AF414B01221A70404B00221A70102000F032FF102001F013F81D20072101F0C9F83B4B04221A703A4B00221A703A4B28
:4009C00000221A70394B394A1278D2B242F01802D2B21A70364B00221A70364B00221A70354B00221A70354B0A221A70344B00221A70344B00221A70334B12221A70334B10
:400A000013221A70324B00221A70324B14221A700123009303204FF400414FF40042082300F0BEFB02230093002049F2DA014FF40042102300F0B4FB03230093002049F281
:400A4000DA014FF40042102300F0AAFB04230093002049F2DA014FF40042102300F0A0FB1D4A0D4B1B78DBB2013B1C499B000B449B7813701A4B084A1278D2B2511E174A86
:400A800032F821201A80044B1B78DBB2184600F083F9BD4680BD00BF1081FF1FA481FF1F96580040975800409E580040075B004093580040885B0040895B00408058004048
:400AC000815800408358004088580040895800408D580040014E00400E4E0040A881FF1F0C4E004080B582B000AF00F0D7FF0346FB71444B1B78BB71434B434A1278D2B248
:400B000042F00102D2B21A703F4B3F4A1278D2B242F01002D2B21A703C4B3C4A1278D2B242F00102D2B21A70384B384A1278D2B242F01002D2B21A70354B354A1278D2B22F
:400B400042F00202D2B21A70324B324A1278D2B242F00202D2B21A702F4B2F4A1278D2B242F00302D2B21A70032000F0B1FF284B274A1278D2B222F00202D2B21A70254B57
:400B8000244A1278D2B222F00202D2B21A70234B224A1278D2B242F00602D2B21A70204B7A221A701F4B1F4A1278D2B242F00102D2B21A701C4B1C4A1278D2B242F00102A0
:400BC000D2B21A70194B194A1278D2B242F00102D2B21A70164B164A1278D2B242F00102D2B21A70134B4FF000521A60124B4FF000521A60FB79184600F054FF0837BD4695
:400C000080BD00BF1081FF1FAA430040BA430040F8460040F9460040915800407758004082580040A1430040B1430040A2430040B243004080E200E000E100E080B500AFB7
:400C4000084B1B78002B09D1074B1B78DBB2002B01D1FFF79BFE034B01221A70FFF742FF80BD00BFA681FF1FA781FF1F80B400AF054B054A1278D2B242F00102D2B21A70FF
:400C8000BD465DF8047B7047004E004080B485B000AF0346FB710E4B1B78DBB2002B03D00C4B1B78FB7305E00B4B1B78DBB203F00103FB73FB7B012B02D0FB79002BEAD0EF
:400CC000FB7B18461437BD465DF8047B704700BFA581FF1FA481FF1F014E004080B483B000AF174B1B78DBB203F003037B717B79012B03D8134B1B88FB8010E0114B1B789F
:400D0000DBB2FB80104B1B78DBB21B029AB2FB881343FB807B79032B01D10C4B1B780C4B1B78DBB2002B02D00A4B00221A70FB881BB218460C37BD465DF8047B704700BFE2
:400D4000144E0040104E0040114E0040124E0040A581FF1FA481FF1F80B485B000AF78600B4B1B687A68D31A7B607B684FF47A7202FB03F2074B1B6892FBF3F3FB81FB89AE
:400D80001BB218461437BD465DF8047B704700BFC881FF1FC481FF1F80B582B000AF0346FB71C24B00221A70FB79012B65D1C04B38221A70BF4B04221A70BF4B06221A70E7
:400DC000BE4B00221A70BE4B00221A70BD4B0F221A70BD4B00221A70BC4B00221A70BC4B00221A70BB4B01221A70BB4B14221A70BA4B04221A70BA4B18221A70B94B00228F
:400E00001A70B94B11221A70B84B12221A70B84B00221A70B74B01221A70B74B11221A70B64B19221A70B64B97221A70442000F065FAB44B58221A70B34B00221A70B34B21
:400E400005221A70B24B02221A70B24B00221A70B14B00221A70002000F008FCAF4B2A221A602420012100F015FC9520012100F0F5FC1D20AA4900F03DFEFB79022B66D19F
:400E80008B4B38221A708B4B04221A708A4B06221A708A4B00221A70894B00221A70894B3F221A70884B00221A70884B00221A70874B00221A70874B01221A70864B50226D
:400EC0001A70864B27221A70854B2C221A70854B00221A70844B55221A70844B5A221A70834B05221A70834B01221A70824B11221A70824B19221A70814B97221A70442072
:400F000000F0FCF97F4B58221A707F4B00221A707E4B05221A707E4B02221A707D4B00221A707D4B00221A70002000F09FFB7B4B4FF47A421A600820012100F0ABFB2520A1
:400F4000012100F08BFC1D20764900F0D3FDFB79032B66D1564B38221A70564B04221A70554B06221A70554B00221A70544B00221A70544B3F221A70534B00221A70534B12
:400F800000221A70524B00221A70524B01221A70514B50221A70514B27221A70504B2C221A70504B00221A704F4B55221A704F4B5A221A704E4B05221A704E4B01221A7066
:400FC0004D4B11221A704D4B19221A704C4B97221A70442000F092F94A4B58221A704A4B00221A70494B05221A70494B02221A70484B00221A70484B00221A70002000F097
:4010000035FB464B4FF47A421A600820012100F041FB2520012100F021FC1D20424900F069FDFB79042B40F0A880214B38221A70204B04221A70204B06221A701F4B00225F
:401040001A701F4B00221A701E4B3F221A701E4B00221A701D4B00221A701D4B00221A701C4B01221A701C4B50221A701B4B27221A701B4B2C221A701A4B00221A701A4BDB
:4010800055221A70194B5A221A70194B05221A70184B01221A70184B11221A70174B19221A70174B97221A7044203FE0A581FF1F004E0040024E0040034E0040044E0040AC
:4010C000054E0040064E0040084E0040094E00400A4E0040144E0040845800408558004086580040875800408A5800408B5800408C5800408E5800408F580040905800400E
:401100009158004094580040955800409A5800409B5800409C5800409D580040C481FF1F75130000811300008D13000000F0E6F8134B58221A70134B00221A70124B052282
:401140001A70124B02221A70114B00221A70114B00221A70002000F089FA0F4B4FF47A421A600820012100F095FA2520012100F075FB1D20094900F0BDFC0837BD4680BD1D
:4011800094580040955800409A5800409B5800409C5800409D580040C481FF1F9913000080B586B000AFF871B9807A80BB7197F82030002B00F08A8097F82030042B00F213
:4011C0008580FB79013B092B4AD801A252F823F0F91100006112000061120000F91100006112000061120000131200002D1200006112000047120000BB790F2B04D9364B08
:401200001B78DBB2FB752EE0344B1B78DBB2FB7529E0BB790F2B04D9314B1B78DBB2FB7521E0304B1B78DBB2FB751CE0BB790F2B04D92D4B1B78DBB2FB7514E02B4B1B7849
:40124000DBB2FB750FE0BB790F2B04D9284B1B78DBB2FB7507E0274B1B78DBB2FB7502E00023FB7500BFBA8897F917305B0113443B617B883A6902FB03F3FB60FB68DB0B72
:40128000BB82BB790D2B11D8BA8ABB79C3F10E0342FA03F3BB8297F82030013BBA790132D2B215499B000B449A7007E097F82030013B114A9B0013440F229A7097F8203030
:4012C0005A1E0D4BB98A23F8221002E0002000F0F3FB1837BD4680BD180100491C010049190100491D0100491A0100491E0100491B0100491F010049A881FF1F80B584B043
:4013000000AF0346FB7100F0C9FB0346FB73164B154A1278D2B242F00302D2B21A70134B124A1278D2B242F00302D2B21A70104BFA791A70032000F0CBFB0B4B0A4A127859
:40134000D2B222F00302D2B21A70084B074A1278D2B222F00302D2B21A70FB7B184600F0A1FB1037BD4680BDF8460040F94600409258004080B400AFBD465DF8047B70476E
:4013800080B400AFBD465DF8047B704780B400AFBD465DF8047B704780B400AFBD465DF8047B704780B500AF0E4B06221A700E4B08221A700C4B0C4A1278D2B242F01002DF
:4013C000D2B21A70094B81221A70094B084A1278D2B242F00802D2B21A70022000F058F880BD00BF0058004001580040025800400B5A004080B400AF0D4B0D4A1278D2B2F2
:4014000042F00102D2B21A700A4B0A4A1278D2B242F00102D2B21A70074B074A1278D2B262F07F02D2B21A70BD465DF8047B7047A9430040B94300407758004080B500AFF4
:40144000054B1B78002B04D1FFF7ACFF024B01221A70FFF7CFFF80BDB881FF1F80B400AF094B094A1278D2B222F00102D2B21A70064B064A1278D2B222F00102D2B21A7009
:40148000BD465DF8047B7047A9430040B943004080B485B000AF0346FB710A4B1B78DBB223F00303FB73FB7903F00303DAB2FB7B1343FB73034BFA7B1A701437BD465DF84A
:4014C000047B70470158004080B500AF054B1B78002B04D100F008F8024B01221A7000F023F880BDB981FF1F80B400AF094B72221A70094B20221A70084B06221A70084BFF
:4015000047221A70074B00221A70BD465DF8047B704700BF896500408B65004028640040386400408864004080B582B000AF00F0B5FA0346FB71104B0F4A1278D2B242F0DD
:401540002002D2B21A700D4B0C4A1278D2B242F01002D2B21A700A4B094A1278D2B242F01002D2B21A7000F05DFAFB79184600F099FA0837BD4680BD996500409B6500408C
:401580009864004080B483B000AF0023FB710C4B1B78BB71BB7903F02003002B09D0094B1B78FB71BB7903F01E03002B01D00023FB71FB7918460C37BD465DF8047B70471D
:4015C0006B6500404865004080B483B000AF0346FB7100BF074B1B78DBB203F00403002BF8D1054BFA791A700C37BD465DF8047B704700BF686400404964004080B584B0C5
:4016000000AF78600023FB810B4B1B78002B10D009E0FB897A6813441B781846FFF7D4FFFB890133FB81FB897A6813441B78002BEFD11037BD4680BDB981FF1F80B582B07B
:4016400000AF0023FB7106E0FB791846FFF7C2F8FB790133FB71FB79012BF5D9024BFF221A700837BD4680BD1181FF1F80B582B000AF0346FB71FFF7E1FFFB791846FFF7B2
:4016800089F8034BFA791A700837BD4680BD00BF1181FF1F80B584B000AF02460B46FA807B7100F0CBF80346FB7300F0A1F80346BB81FA88BB899A4200F08780444B1B7826
:4016C000DBB203F00103FB72FB7B002B20D1BB89002B02D0FB88002B1AD1BB89002B0BD13C4BFA881A803C4B3B4A1278D2B222F04002D2B21A7068E0374B374A1278D2B2CA
:4017000042F04002D2B21A70324BFA881A805CE0FB7A002B33D0314B00221A70304B01221A70304B00221A702F4B2F4A1278D2B202F07F02D2B21A70274B1B78DBB203F031
:401740000803002B02D0FB88002B18D1274BBA891A80224B07221A7000BF204B1B78DBB203F00103002BF8D1194B194A1278D2B222F00102D2B21A70184B00221A70144BC0
:401780001B78DBB203F00103002B13D0174BFA881A80124A7B79002B01D0032300E00123137000BF0D4B1B78DBB203F00103002BF8D10AE0074BFA881A80054B044A1278EB
:4017C000D1B2FA7A0A43D2B21A701037BD4680BDA24300408040004082400040014000401040004014400040084000400240004080B400AF034B1B889BB21846BD465DF863
:40180000047B70478040004080B483B000AF0346FB71094B084A1278D2B2D1B2FA7922F00702D2B20A43D2B2D2B21A700C37BD465DF8047B704700BF8240004080B400AF0A
:40184000054B1B78DBB203F00703DBB21846BD465DF8047B704700BF8240004080B584B000AF02460B46FA807B7100F0CBF80346FB7300F0A1F80346BB81FA88BB899A4290
:4018800000F08780444B1B78DBB203F00103FB72FB7B002B20D1BB89002B02D0FB88002B1AD1BB89002B0BD13C4BFA881A803C4B3B4A1278D2B222F04002D2B21A7068E000
:4018C000374B374A1278D2B242F04002D2B21A70324BFA881A805CE0FB7A002B33D0314B00221A70304B01221A70304B00221A702F4B2F4A1278D2B202F07F02D2B21A70E4
:40190000274B1B78DBB203F00803002B02D0FB88002B18D1274BBA891A80224B07221A7000BF204B1B78DBB203F00103002BF8D1194B194A1278D2B222F00102D2B21A70E7
:40194000184B00221A70144B1B78DBB203F00103002B13D0174BFA881A80124A7B79002B01D0032300E00123137000BF0D4B1B78DBB203F00103002BF8D10AE0074BFA887D
:401980001A80054B044A1278D1B2FA7A0A43D2B21A701037BD4680BDA14300400041004002410040014000401440004010400040084000400240004080B400AF034B1B88E1
:4019C0009BB21846BD465DF8047B70470041004080B483B000AF0346FB71094B084A1278D2B2D1B2FA7922F00702D2B20A43D2B2D2B21A700C37BD465DF8047B704700BFAA
:401A00000241004080B400AF054B1B78DBB203F00703DBB21846BD465DF8047B704700BF0241004080B400AF094B094A1278D2B242F00202D2B21A70064B064A1278D2B28D
:401A400042F00202D2B21A70BD465DF8047B7047A2430040B2430040142840F2188002B4012114381149097811F0C001890904B40F4A515C04BC00BF00BF00BF88417FF5E9
:401A8000FDAF00BF00BF02BC704700BF00BF70F104007FF5FCAF70470B050709EFF3108072B6704780F310887047000000480040981A0000AFF3008080B483B000AF0346E0
:401AC000FB7101BE0C37BD465DF8047B704700BF80B582B000AF0346FB80FB88044A127802FB03F31846FFF7B7FF0837BD4680BD1C81FF1F80B584B000AF03463960FB7159
:401B00000F4B1B68FB60FB791F2B02D90020FFF7D3FFFB7903F01F0310339B00FA6813441B68BB60FB7903F01F0310339B00FA6813443A681A60BB6818461037BD4680BDEA
:401B400008ED00E080B582B000AF02460B46FA71BB71BB79072B02D90020FFF7ADFFFB791F2B02D90020FFF7A7FFFB7903F01F0303F1604303F56443BA795201D2B21A709F
:401B80000837BD4680BD00BF014B1868704700BF8481FF1F70B50E4B0E4D0024ED1AAD101E46AC4204D056F8242090470134F8E700F08CFC084D094B0024ED1AAD101E46B1
:401BC000AC4204D056F8242090470134F8E770BDD8240000D8240000E0240000D824000010B50023934203D0CC5CC4540133F9E710BD02440346934202D003F8011BFAE7A2
:401C0000704700000EB400B54FF402719CB0ADF814106FF00041049107914FF6FF711DABADF81610084953F8042B02900690086802A9019300F066F8029B00221A701CB091
:401C40005DF804EB03B070478481FF1F2DE9F0478D688146AB420C4692461F4643D38B8913F4906F3DD0266809690222C1EB0608666906EB460696FBF2F608F101023A44F4
:401C8000964238BF16465B050FD5314600F01AFB054698B121694246FFF7A2FFA38923F4906343F08003A38113E0324600F05EFB054670B94846216900F0C0FA0C23C9F812
:401CC0000030A3894FF0FF3043F04003A381BDE8F087256166614544C8EB06062560A6603D46AF4200D23D462A462068514600F089FAA36800205B1BA36023681D44256064
:401D0000BDE8F0872DE9F0439DB003938B8907461C060D4616460CD50B6953B9402100F0D1FA2860286110B90C233B60C7E040236B610023099320238DF8293030238DF87A
:401D40002A3033461C4613F8012B1AB9B4EB06090FD002E0252AF5D1F8E73846294632464B46FFF773FF013000F0A480099B4B4409932378002B00F09D8000234FF0FF32E9
:401D800004930793059206938DF853301A9304F101094D4E4C4630462178052200F024FA09F10109049B28B1861B0120B04003430493EEE7D90644BF20228DF853201A0780
:401DC00044BF2B228DF8532022782A2A02D0079B21460EE0039A111D12680391002A01DB079204E0524243F002030792049301340AE00C4622780131303A092A03D80A20AD
:401E000000FB0323F5E7079323782E2B19D163782A2B09D1039B02341A1D1B680392002BB8BF4FF0FF330BE0611C00230C4622780131303A092A03D80A2000FB0323F5E7A5
:401E40000593224E21783046032200F0CDF930B1861B4020B040049B01340343049321781B480622661C8DF8281000F0BDF988B1184B33B9039B073323F007030833039396
:401E800014E003AB0093384604A92A46124BAFF3008007E003AB0093384604A92A460E4B00F08EF8B0F1FF3F804603D0099B4344099346E7AB895B0601D4099801E04FF0AA
:401EC000FF301DB0BDE8F083962400009C240000A0240000000000004D1C00002DE9F84315461F468A680B6906469A42A8BF13462B6091F843200C46DDF820800AB101339B
:401F00002B602368990602D52B6802332B60236813F006091DD094F843302268003318BF012392061FD5E118302081F843005A1C94F845102244023382F8431013E03046C8
:401F4000394604F119020123C047013007D009F10109E2682B68D31A9945F0DBDBE74FF0FF30BDE8F8833046394604F14302C0470130F4D023682A6803F00603E168042B1C
:401F800008BFC2EB01052369A2680CBF25EAE57500259A42C4BFC3EB0203ED184FF00009A9450ADA3046394604F11A020123C0470130D4D009F10109F2E70020BDE8F88364
:401FC0002DE9FF470E7E80466E2E0C4691469A460C9D01F1430000F0A58011D8632E22D009D8002E00F0AF80582E40F0BF8081F845607B4A4FE0642E1ED0692E1CD0B5E062
:40200000732E00F0A48009D86F2E2BD0702E40F0AD800B6843F020030B6038E0752E21D0782E34D0A2E02B6801F142071A1D1B682A6081F842309DE022682B6812F0800F43
:4020400003D01A1D2A601D6805E05106F9D51A1D2A60B3F90050002D39DA2D236D4284F8433034E022682B6812F0800F03D01A1D2A601D6804E05206F9D51A1D2A601D8807
:40208000237E574A6F2B14BF0A2308231BE07823544A84F845302368296813F0800F01F104062E6001D00D6802E05F06FBD50D88DE0744BF43F0200323601DB9236823F095
:4020C000200323601023002184F8431001E0444A0A236668002EA66003DB216821F00401216005B96EB104F14201B5FBF3F603FB1655555D0F4601F801593546002EF4D19C
:4021000000E00746082B0AD12368DD0707D5626823699A4203DC302307F8013C013FC01B20612CE009682B6811F0800F626904D0191D29601B681A6005E04906F8D5191DAB
:4021400029601B681A8000232361074617E02B681A1D2A601F68384600F03EF963682061984288BF23612369636005E004F1420784F8426001232361002384F84330CDF84E
:4021800000A04046214603AA4B46FFF7A7FE013002D14FF0FF301FE0404649463A462369D0470130F5D023689B0705D4E068039B9842B8BF18460FE00025E268039BD31A96
:4021C0009D42F3DA4046494604F119020123D0470130DED00135F0E704B0BDE8F08700BFA7240000B824000010B5C9B202449042034605D01C7801308C42F8D1184610BDB4
:40220000002010BD814270B501D300230EE08C18A042FAD28518134613F1FF3305D351426618F65C2944CE54F6E770BD934203D0CC5CC4540133F9E770BD000030B500295B
:402240003CD051F8042C0B1F1D49002AB8BF9B180A680C4612B95A600B6030BD93420DD219685818904203D15A581144426819605A60236030BD994203D80A4651680029CD
:40228000F9D1146815199D420AD11B682344D0188842136012D10868034413604B680CE002D90C23036030BD18681C188C4203D10C684968204418605960536030BD00BF6C
:4022C000C081FF1F70B5CD1C25F0030508350C2D38BF0C25002D06463FDB8D423DD3214B1C6818462146A1B10B685B1B0ED40B2B03D90B60CC18CD501FE08C4202D162688A
:4023000002601AE04B6863600C4616E00C464968E9E7154C23681BB9304600F04DF820602946304600F048F8431C014615D0C41C24F0030484420AD1256004F10B00231DC4
:4023400020F00700C31A0BD05A42E25070BD3046611A00F031F80130EED10C233360002070BD00BFC081FF1FBC81FF1FF8B5064614460D4621B91146BDE8F840FFF7A2BF06
:402380001AB9FFF75BFF2046F8BD00F02DF8A0420ED230462146FFF795FF074650B129462246FFF71DFC30462946FFF747FF01E02846F8BD3846F8BD38B5064C0023054668
:4023C00008462360FDF7EEFF431C02D1236803B12B6038BDCC81FF1F034613F8012B002AFBD1181A0138704751F8040C002802DA04390B58184404387047000000000000EB
:40240000434F4D20506F7274204F70656E00000053616D706C653A20256C75206D560D0A00000000456D756C6174656420446174613A202578200D0A0000000050726D73EF
:402440005E32203A202568750D0A0000035B00402443004040000000005100402000305100404000F0510040100000000140001000140140000800400140000A004C0140AB
:40248000000200500140200060520040DC030048060000004300232D302B2000686C4C006566674546470030313233343536373839414243444546003031323334353637DA
:4024C000383961626364656600000000F8B500BFF8BC08BC9E4670474D0000008D040000F8B500BFF8BC08BC9E46704729000000002500000881FF1F80000000480000007D
:4025000000000000D081FF1F01FF000000366E01C05D0000180000000000E02E0000000000000000000000000000000000000000000000000000000000000000942400008C
:402540000000000000000000000000000000000000000000000000000000000000000000000000000000000000000000000000000000000000000000000000002481FF1F98
:40258000000000000000000000000000000000000000000000000000000000000000000000000000000000000000000000000000000000000000000000000000000000001B
:4025C00000000000000000000000000000000000000000000000000000000000000000000000000000000000000000000000000000000000000000000000000000000000DB
:40260000000000000000000000000000000000000000000000000000000000000000000000000000000000000000000000000000000000000000000000000000000000009A
:40264000000000000000000000000000000000000000000000000000000000000000000000000000000000000000000000000000000000000000000000000000000000005A
:020000040003F7
:0200000480007A
:40000000015A004001640040026500405F08014034090140040E0140020F0140011501405218014039190140411A0140441B01400444014002460140014701400248014017
:4000400001490140014C0140094D0140045001400B01880F89728B38002A0244040305100644072A08730A0C1208132C151017261A551D2C1F122304271228732A042D0147
:40008000304031363230330E340F350138083A203B0A3E053F104003454049FF4A074BFF4C404D204EF04F0550085401580459045A045B045C115D115F01604061A86240FD
:4000C0006320801C82028414850289048A038D04981099049A0C9F01A010A501A80CA901AA11AC09AE10B103B21FB504B902C063C102C5EBC70CC813C9FFCAFFCBFFCEF0D0
:40010000CF44D00CD804D904DA04DC11DD01DF01E6C0EA40EB020010010803400408051007600A040F44108012081340171018101D181E44221223402608275829142C807C
:400140002D042F01302033403504360A374039583B043E04410443104508491A4B024C804D044F0450045D025E405F28C07EC252C44BCAD6CCDCCE4ED046D204D6F0B980CC
:40018000BF40D904DF0126808A80EC100302080709010C071001110112061406150116011A011C042302240228062D013301350236073B803F14405341044201440645CE14
:4001C000480349FF4AFF4BFF4C624DA04EF04F41500C580459045A045C115D015F016640670269106A306B106D106E106F1280288246850689028D079050922695069701D4
:400200009B019C049D049E19A47CA87CA906AB01AD01AF06B060B307B403B61CBB08BE10D602D711D804D904DB04DC11DD10DF01000207050A810C940D080E401020111045
:4002400017281A811B101D801F402020210825102711280429802D802E402F40308032103304370538283A403C203F0244104580464047014D804F2A5B106820695070948F
:400280007208733881108280901092209550A420C0C8C2F9C466CA9CCCCECEAED0D0D230D6040001040C060309040C030D030E0C10021103140F17031A031B031C031D02EA
:4002C000200821012404280C2B032C0F2D0331033304360F3A803F04580459045C115F01851089308C028F08913E920195389602970499089A019B01A002A120A602A70627
:40030000A938AB02AD0EAF30B002B201B53EB701B802BB20BE04D418D804D904DB04DC11DD10DF01000601800580081809080A830D080E900F081081110413101640170521
:4003400019801E801F042206240425402704280829802A022C802D802E102F2030103251332434013610370538103A403D843E083F104A035E0266806708860488018A12BE
:40038000901092A193109A889B019C109D809F04A080A108A304A401C08DC27FC43FCAFDCCEFCE7CD680D830E408EC107C208820DE01E0014508D001A5082510C820B51034
:4003C000A5081040740184018840B508C408DE04E201EC0800020C0210021C0280800000400000008000408080008000000000000000000000000100950018010F271B013B
:4004000000000000000000000000000000000000000000000000000000000000000000000000000000000000000000000000000000000000000000000000000000000000BC
:40044000000000000000000000000000000000000000000000000000000000000000000000000000000000000000000000000000000000000000000000000000000000007C
:40048000000000000000000000000000000000000000000000000000000000000000000000000000000000000000000000000000000000000000000000000000000000003C
:4004C00000000000000000000000000000000000000000000000000000000000000000000000000000000000000000000000000000000000000000000000000000000000FC
:0200000490006A
:0400000000004005B7
:0200000490105A
:04000000BC90ACAF55
:0200000490303A
:020000009B491A
:0200000490402A
:4000000000000000000000000000000000000000000000000000000000000000000000000000000000000000000000000000000000000000000000000000000000000000C0
:400040000000000000000000000000000000000000000000000000000000000000000000000000000000000000000000000000000000000000000000000000000000000080
:400080000000000000000000000000000000000000000000000000000000000000000000000000000000000000000000000000000000000000000000000000000000000040
:4000C0000000000000000000000000000000000000000000000000000000000000000000000000000000000000000000000000000000000000000000000000000000000000
:0200000490501A
:0C00000000012E16106900012E24ABB286
:00000001FF